:100000000C946A000C9492000C9492000C94BB0B1C
:100010000C94BB0B0C94BB0B0C9492000C949200B0
:100020000C9492000C9492000C9492000C94920008
:100030000C9492000C9492000C9492000C949200F8
:100040000C94350C0C9492000C9492000C94920039
:100050000C9492000C9492000C9492000C949200D8
:100060000C94190A0C949200000000080002010090
:100070000003040700000000000000000102040863
:100080001020408001020408102001020408102002
:10009000040404040404040402020202020203032E
:1000A00003030303000000002300260029000000D2
:1000B0000000250028002B0000000000240027007D
:1000C0002A006364696E6F70737578585B008A07E5
:1000D000A007370911241FBECFEFD8E0DEBFCDBF88
:1000E00012E0A0E0B1E0E6E4F3E202C005900D9278
:1000F000AC36B107D9F723E0ACE6B2E001C01D92FF
:10010000A93CB207E1F710E0C4EDD0E004C02297AB
:10011000FE010E940C0ECE3CD107C9F70E94C70D0C
:100120000C94A1110C9400008F929F92AF92BF92F9
:10013000CF92DF92EF92FF920F931F93C0907E02B7
:10014000D0907F02E0908002F09081024B015C0130
:100150008C189D08AE08BF088901222717FD20953D
:10016000322F80169106A206B30608F440C02091F3
:100170008202309183022F5F3F4F223031052CF4F1
:10018000309383022093820204C010928302109263
:1001900082024115510581F041305105C9F4209189
:1001A00082023091830248E1429FF001439FF00DAB
:1001B0001124E450FE4F0CC0209182023091830242
:1001C00048E1429FF001439FF00D1124E45DFD4F93
:1001D00028E1A1E9B2E001900D922A95E1F7609340
:1001E0007E0270937F0280938002909381021F9120
:1001F0000F91FF90EF90DF90CF90BF90AF909F90C6
:100200008F90089581E08093B902E5E9F2E0808162
:1002100088618083E8E9F2E0808188618083E1EA97
:10022000F2E0808188618083E4EAF2E08081886185
:10023000808308952F923F924F925F926F927F92A8
:100240008F929F92AF92BF92CF92DF92EF92FF92E6
:100250000F931F93CF93DF93CDB7DEB765970FB69C
:10026000F894DEBF0FBECDBF8B87262F7A014AE000
:10027000642F0E94D60DB82E592F822F0E94D60DC2
:1002800023E932E0398B288BA1E9B2E062E972E020
:100290007F876E8700E010E04E9D90014F9D300DEE
:1002A0001124F901E90FF11DEE0FFF1FEE0FFF1FE3
:1002B000F887EF83B9016B0D711D660F771F660F0D
:1002C000771F7A876987812C912C54018394390197
:1002D000680E711C660C771C660C771C6901C50ED4
:1002E000D11CCC0CDD1CCC0CDD1C980121703327FB
:1002F0004CEF42031001439F300C11242801559408
:1003000047948F819885840D951D8C579E4FFC01D5
:100310008081282F30E03D872C8763E070E07A836E
:10032000698320E030E089859A85840D951D8C577E
:100330009E4F9E838D8397E0290E311CF301E40DBF
:10034000F51DEC57FE4FFC83EB834C0C5D1CB2019A
:100350006C577E4F2B01EB85EA3028F0ED81FE8152
:10036000E080F12C02C0E12CF12CE7E0F0E0E21B90
:10037000F30BA101421B530B042E02C0F594E7942A
:100380000A94E2F7C501B40104C0660F771F881F05
:10039000991FEA95D2F76A8B7B8B8C8B9D8BE0FE45
:1003A00004C0FC90F62AFC9205C06A8960958C9185
:1003B00086238C93F201808190E0042E02C09595F3
:1003C00087950A94E2F72330310551F1E2E0F0E03D
:1003D000E21BF30B80FF11C0C501B40104C0660F1E
:1003E000771F881F991FEA95D2F76A8B7B8B8C8BBE
:1003F0009D8BFC90F62AFC921EC0C501B40104C07E
:10040000660F771F881F991FEA95D2F76A8B7B8B3F
:100410008C8B9D8B6A8960959C9196239C930BC0D5
:10042000EE85FF8580FF03C08081806802C08081E7
:100430008F77808318C021153105A9F4EB81FC81E9
:10044000808190E0042E02C0959587950A94E2F78A
:10045000EE85FF8580FF03C08081816002C08081BE
:100460008E7F808337C0EB81FC81808190E0042EF9
:1004700002C0959587950A94E2F7E8E0F0E0E21B68
:10048000F30B80FF13C0C501B40104C0660F771FD2
:10049000881F991FEA95D2F76A8B7B8B8C8B9D8B7B
:1004A000E889F989F080F62AF08214C0C501B40108
:1004B00004C0660F771F881F991FEA95D2F76A8BD1
:1004C0007B8B8C8B9D8B6A896095E889F9899081FB
:1004D000962390836C857D8502C0759567954A95B6
:1004E000E2F760FF0FC0E889F9898081B501A401B6
:1004F000098004C0440F551F661F771F0A94D2F766
:10050000842B0FC0B501A401098004C0440F551FFE
:10051000661F771F0A94D2F74095E889F989808190
:10052000842380832F5F3F4F69817A8161507109F5
:100530007A8369832430310509F00DCF0F5F1F4F97
:10054000888999890396998B888B1396EE85FF8508
:100550003396FF87EE870830110509F0C6CE659601
:100560000FB6F894DEBF0FBECDBFDF91CF911F91C4
:100570000F91FF90EF90DF90CF90BF90AF909F9042
:100580008F907F906F905F904F903F902F90089545
:100590002F923F924F925F926F927F928F929F9293
:1005A000AF92BF92CF92DF92EF92FF920F931F9381
:1005B000CF93DF93CDB7DEB763970FB6F894DEBF66
:1005C0000FBECDBF1C017B8B6A8BCB016AE070E054
:1005D0000E94E20D5B01E3E9F2E002E912E01D870F
:1005E0000C871F861E869C01220F331F220F331F8C
:1005F0003B872A8741E050E060E070E0AA0CBB1C1A
:10060000AA0CBB1C8E859F85817099272CEF8C01CD
:1006100020036001219FD00C112437E0C30ED11CB0
:1006200081E090E00C2C02C0880F991F0A94E2F739
:100630009D838C838E859F85959587952A853B859F
:10064000280F391F2C573E4FD9010C9110E0B8E00C
:100650008B2E912C23E030E0398B288BAE85BF8523
:10066000AC58BE4FBF83AE832E853F8524583E4F86
:10067000398728878A0D9B1D8C579E4F2114310482
:1006800019F4A885B98502C0AE81BF812C91A889D3
:10069000B9891397F1F4AA89BB891A9724F0DC0170
:1006A000EC90F12C02C0E12CF12CAC81BD81EA224E
:1006B000FB22AC85BD85EF2821F0FC90BF2DB160F9
:1006C00003C0FC90BF2DBE7FFB2EAC85BD85FC9288
:1006D0002DC0AA89BB891A9724F0DC01EC90F12C7B
:1006E00002C0E12CF12C0C2C02C0F594E7940A9482
:1006F000E2F7E0FE0DC0F0802A013B01082C04C0A7
:10070000440C551C661C771C0A94D2F7F4280DC0C3
:100710002A013B01082C04C0440C551C661C771CA4
:100720000A94D2F74094F080F420F08278010C2CE7
:1007300002C0F594E7940A94E2F7E0FE0DC0F08061
:100740002A013B01088804C0440C551C661C771C18
:100750000A94D2F7F4280DC02A013B01088804C08E
:10076000440C551C661C771C0A94D2F74094F08008
:10077000F420F082A889B9891197B98BA88BB1E0D0
:10078000CB1AD10831E0831A9108A889B98911964A
:1007900009F074CF8F0102501109D8012C930E85F6
:1007A0001F850F5F1F4F1F870E8733962C853D8552
:1007B0002D5F3F4F3D872C870830110509F022CF70
:1007C00063960FB6F894DEBF0FBECDBFDF91CF9119
:1007D0001F910F91FF90EF90DF90CF90BF90AF905F
:1007E0009F908F907F906F905F904F903F902F9051
:1007F0000895E3E9F2E0DF0112971C9211961C9232
:100800001082339682E0EB3AF807A9F708950F9328
:100810001F93CF93DF9360E082E00E94280DC3E036
:10082000D0E001E010E02FEF41E063E084E00E94BF
:10083000870D980100908F0202C0220F331F0A9487
:10084000E2F741E063E084E00E94870D219759F7C9
:1008500061E082E0DF91CF911F910F910C94280D00
:1008600090E09C01220F331F2A7A95958795857514
:10087000282B30E0C901880F991F880F991F8C7CA5
:1008800035952795359527952373822B8295089565
:100890000F931F93CF93DF9360E082E00E94280DB7
:1008A000C2E0D0E001E010E080918F0290919002D0
:1008B000FC01EE0FFF1FE80FF91FEC0FFD1FEF56B5
:1008C000FD4F80810E943004282F209541E063E095
:1008D00084E00E94870D980100908F0202C0220FD1
:1008E000331F0A94E2F741E063E084E00E94870D41
:1008F0002197D0F661E082E00E94280D80918F025E
:10090000909190020196883091052CF4909390027A
:1009100080938F0206C01092900210928F02109264
:100920000401DF91CF911F910F910895CF92DF9233
:10093000EF92FF921F93CF93DF93CDB7DEB7279748
:100940000FB6F894DEBF0FBECDBF0E947F0C6B01C7
:100950007C018091AD029091AE02A091AF02B09166
:10096000B002A7019601281B390B4A0B5B0B2536F9
:1009700031054105510508F401C18CE692E00E9461
:100980006B0B882309F4FAC08CE692E00E94B70B47
:10099000882309F4EBC08091A9029091AA02A0914A
:1009A000AB02B091AC02A7019601281B390B4A0B90
:1009B0005B0BDA01C90120918D0230918E028A3FD2
:1009C0009105A105B10508F457C02F5F3F4F309343
:1009D0008E0220938D0223303105B9F17CF4213051
:1009E000310519F12230310509F0C8C080918B0220
:1009F000809376026091750270E08AC024303105E0
:100A000081F12530310509F0B9C010928E021092A3
:100A10008D020E94F90381E08093040160917B02C2
:100A200081E090E00E94EF10A9C00E94F90360915C
:100A3000760270E070938C0260938B0280E090E00D
:100A40000E94C8021092BA0299C080918B028093D2
:100A5000750284E792E00E94A40781E080937D0202
:100A60008DC010927D020E94F9030E940201409104
:100A70007B0250917C0275C022303105E9F13CF4D3
:100A80002115310569F02130310519F177C0233086
:100A9000310509F446C02430310509F452C06EC056
:100AA0008091BA02882351F01092BA0281E08093BB
:100AB000040184E792E00E94FB0760C081E080931C
:100AC000BA020E94F90318E00E9448041150E1F7AD
:100AD00055C060918B0270918C02673171051CF4D6
:100AE0006F5F7F4F02C060E070E070938C02609394
:100AF0008B0280E090E012C060918B0270918C02BA
:100B00006B3371051CF46F5F7F4F02C060E070E0D3
:100B100070938C0260938B0281E090E00E94C80287
:100B20002DC080918402909185021816190614F048
:100B3000019602C080E090E0909385028093840249
:100B40001DC040917B0250917C02423051051CF443
:100B50004F5F5F4F02C040E050E050937C024093F3
:100B60007B0262E28CE00E941A0108C0C092A902D6
:100B7000D092AA02E092AB02F092AC0280917D0288
:100B800081112BC080918D0290918E02181619064A
:100B90000CF4CEC08091BA028111CAC080918A0241
:100BA000882371F18091860290918702A09188023A
:100BB000B0918902B701A601481B590B6A0B7B0B48
:100BC0008091000190910101A0910201B091030177
:100BD000481759076A077B0758F4409184025091DF
:100BE00085022AEF30E0C701B6010E949400A0C040
:100BF0000E94F90310928A0281E08093040198C058
:100C00008091B5029091B602A091B702B091B8025E
:100C1000A7019601281B390B4A0B5B0BDA01C901AE
:100C2000883E9340A105B10550F0C092B502D09224
:100C3000B602E092B702F092B8020E9402018091DF
:100C4000B1029091B202A091B302B091B402A70197
:100C50009601281B390B4A0B5B0BDA01C901843F53
:100C60009140A105B10508F453C080918F02909185
:100C70009002892B09F04CC0C092B102D092B2020E
:100C8000E092B302F092B4020E940704CE010196F2
:100C90000E94FB079B8180917602981305C09A8180
:100CA000809175029817A1F187E0FE013196A4E7C3
:100CB000B2E001900D928A95E1F781E08093040102
:100CC00080917502882331F08F3021F08E3111F040
:100CD0008D32F1F4C0928602D0928702E0928802AF
:100CE000F09289028091840290918502019682306F
:100CF00091052CF4909385028093840204C0109295
:100D00008502109284020E94F90381E080938A0296
:100D100080910401882361F01092040140917B02CC
:100D200050917C0260917502809176020E941A01B6
:100D30008091BA02811102C00E94480427960FB622
:100D4000F894DEBF0FBECDBFDF91CF911F91FF9012
:100D5000EF90DF90CF900895CF93DF9300D000D035
:100D600000D0CDB7DEB79E012F5F3F4F3F932F934B
:100D70002E5F3F4F3F932F932E5F3F4F3F932F9315
:100D80002DE131E03F932F939F938F930E94190E93
:100D90000FB6F894DEBF0FBECDBF039759F48D8117
:100DA000809376028B81809375028981809374028F
:100DB00081E001C080E026960FB6F894DEBF0FBE3A
:100DC000CDBFDF91CF910895DF92EF92FF920F9305
:100DD0001F93CF93DF93CDB7DEB7A8970FB6F894E4
:100DE000DEBF0FBECDBF28E1E5E0F1E0DE011196E8
:100DF00001900D922A95E1F79E012B5D3F4F3F93A5
:100E00002F932E5F3F4F3F932F938E01075E1F4F0F
:100E10001F930F9326E231E03F932F939F938F937D
:100E20000E94190E0FB6F894DEBF0FBECDBF039718
:100E300089F4CE0101967C01D12CF7016191719169
:100E40007F01C8010E94100ED394892B29F0FCE089
:100E5000DF12F3CF80E00AC08FA180937802D09296
:100E600079028DA1825B80937A0281E0A8960FB609
:100E7000F894DEBF0FBECDBFDF91CF911F910F91D0
:100E8000FF90EF90DF90089561E082E00E94EF0C08
:100E900061E083E00E94EF0C61E084E00E94EF0CCF
:100EA00060E087E00E94EF0C61E087E00E94280D7F
:100EB00067E070E08CE692E00E94520B65E070E023
:100EC0008CE692E00E94670B80E090E00E94E710C1
:100ED000853089F065E080E090E00E94EF108FE5BA
:100EE00091E00E94E406882331F08BE691E00E94B5
:100EF000AC0681110AC00E94F90384E792E00E94C7
:100F0000FB0781E080930401089584E792E00E944A
:100F1000A407F1CF8CE692E00C94460B6AE00E94A5
:100F2000D60D20E1829F900D1124892F0895982FCE
:100F300092959F708F702AE0929F800D11240895E2
:100F40008CEB92E00C94FB08CF93DF93EC0168E606
:100F500070E08CEB92E00E941F0960E08CEB92E065
:100F60000E94BC0888810E948E07682F8CEB92E05B
:100F70000E94BC0889810E948E07682F8CEB92E04A
:100F80000E94BC088A810E948E07682F8CEB92E039
:100F90000E94BC088B810E948E07682F8CEB92E028
:100FA0000E94BC088C810E948E07682F8CEB92E017
:100FB0000E94BC088D810E948E07682F8CEB92E006
:100FC0000E94BC088E818E510E948E07682F8CEB88
:100FD00092E00E94BC088CEB92E00E9434098823C6
:100FE00021F01092BB0280E003C081E08093BB023D
:100FF000DF91CF9108951F93CF93DF93EC0168E6C3
:1010000070E08CEB92E00E941F0960E08CEB92E0B4
:101010000E94BC088CEB92E00E943409882319F0EE
:101020001092BB024CC081E08093BB0247E050E0CD
:1010300068E670E08CEB92E00E9412098CEB92E083
:101040000E9464080797DCF18CEB92E00E946C0828
:10105000182F8F770E94970788838CEB92E00E946D
:101060006C080E94970789838CEB92E00E946C08C1
:101070008F730E9497078A838CEB92E00E946C0822
:101080000E9497078B838CEB92E00E946C080E9471
:1010900097078C838CEB92E00E946C080E94970764
:1010A0008D838CEB92E00E946C080E949707825E11
:1010B0008E83812F8095881F8827881F01C080E03C
:1010C000DF91CF911F9108958091EC0290E02091E3
:1010D000ED02821B910908952091ED028091EC02AE
:1010E000281750F4E22FF0E0E251FD4F808190E0AC
:1010F0002F5F2093ED0208958FEF9FEF0895E09109
:10110000ED028091EC02E81730F4F0E0E251FD4F7F
:10111000808190E008958FEF9FEF08950895CF921A
:10112000DF92EF92FF920F931F93CF93DF937C0197
:10113000CB018A012091C802222389F0EB016B01C7
:10114000C40ED51ECC15DD0569F06991D701ED916E
:10115000FC910190F081E02DC7010995F3CF642F38
:101160000E94F009C801DF91CF911F910F91FF906C
:10117000EF90DF90CF900895CF93DF931F92CDB77C
:10118000DEB769832091C8022223D1F02091C902E1
:10119000203240F021E030E0FC013383228380E004
:1011A00090E015C08091CA02E82FF0E0E553FD4FB2
:1011B000998190838F5F8093CA028093C90205C092
:1011C00061E0CE0101960E94F00981E090E00F906D
:1011D000DF91CF910895FC011382128248EE53E013
:1011E00060E070E0448355836683778380E692E015
:1011F0009183808308951092ED021092EC02109278
:10120000CA021092C9020C943B09862F413208F0A1
:1012100040E26EEE72E00E9459091092ED02809356
:10122000EC02089521E00C94050981E08093C80246
:101230006093EB021092CA021092C90208950C94B6
:1012400015090F93062F21E04091C9026BEC72E063
:101250008091EB020E949D091092CA021092C9026D
:101260001092C8020F91089561E00C9421098CEB53
:1012700092E00C94EB0810927B0381E08093790359
:101280001092780361E082E10E94280D61E083E121
:101290000E94280DE9EBF0E080818E7F80838081C1
:1012A0008D7F808388E48093B80085E48093BC00C0
:1012B0000895413208F03FC090917B039111FCCF1B
:1012C00091E090937B03209379032FEF20930E03FB
:1012D00010925303240F2093520390937A0390911A
:1012E0007A03880F892B80937A0380917803813069
:1012F00041F41092780380917A038093BB0085ECCF
:1013000001C085EE8093BC0080917B038130E1F3C6
:1013100080915303841710F44091530324E533E084
:10132000FB01D9018A2F821B841718F48D918193B8
:10133000F9CF842F089580E008950F93413208F08B
:1013400046C090917B039111FCCF92E090937B0378
:10135000009379039FEF90930E03109253034093F1
:101360005203FB0164E573E0DB019A2F961B94178F
:1013700018F491919D93F9CF10927A0390917A038A
:10138000880F892B80937A0380917803813041F410
:101390001092780380917A038093BB0085EC01C0A2
:1013A00085EE8093BC00222321F080917B03823064
:1013B000E1F380910E038F3F61F080910E03803244
:1013C00051F080910E03803341F483E007C081E047
:1013D00005C080E003C082E001C084E00F91089561
:1013E000613298F420917B03243089F460933003B8
:1013F000FC0182E393E0DC012A2F281B261718F456
:1014000021912D93F9CF80E0089581E0089582E045
:10141000089585ED8093BC008091BC0084FDFCCFD5
:1014200010927B03089585EC8093BC0010927B039F
:1014300008951F920F920FB60F9211242F933F938E
:101440004F935F936F937F938F939F93AF93BF93CC
:10145000EF93FF938091B900887F803609F49CC098
:1014600068F5883209F45BC090F4803109F454C007
:1014700038F4882309F4F5C0883009F44DC0F5C06C
:10148000883109F44CC0803209F45DC0EEC080346C
:1014900009F468C048F4803309F455C0883309F072
:1014A000E4C080930E03A8C0803509F44FC088358E
:1014B00009F45DC0883409F0D8C0D5C0883909F472
:1014C000C6C0A8F4883709F467C038F4883609F430
:1014D00063C0803709F460C0C8C0883809F4B7C059
:1014E000803909F45FC0803809F0BFC05BC0803B21
:1014F00009F485C038F4803A09F466C0883A09F4E2
:101500007EC0B3C0803C09F4A6C0883C09F4A3C0E7
:10151000883B09F489C0A9C080917A0310C09091DA
:10152000530380915203981770F5E091530381E0C3
:101530008E0F80935303F0E0EC5AFC4F8081809330
:10154000BB0085EC85C080930E038DC0E0915303F2
:1015500081E08E0F809353038091BB00F0E0EC5A42
:10156000FC4F808390915303809152036DC0E091B2
:10157000530381E08E0F809353038091BB00F0E012
:10158000EC5AFC4F80838091790381116CC081E01B
:101590008093780384EA60C083E080937B03109299
:1015A0000F03CFCF80910F03803208F050C0E0913D
:1015B0000F0381E08E0F80930F038091BB00F0E05A
:1015C000E05FFC4F8083BDCF80910F03803230F409
:1015D000E0910F03F0E0E05FFC4F10820E94090AE7
:1015E00060910F0370E0E0917403F091750380E166
:1015F00093E0099510920F030E94130A36C084E00D
:1016000080937B031092310310923003E0917603B4
:10161000F0917703099580913003811105C081E035
:101620008093300310923203E091310381E08E0FFA
:1016300080933103F0E0EE5CFC4F80818093BB002F
:101640009091310380913003981708F47ACF85E8A0
:101650008093BC000AC085EC8093BC0010927B0391
:1016600004C010920E030E94090AFF91EF91BF91EE
:10167000AF919F918F917F916F915F914F913F912A
:101680002F910F900FBE0F901F901895FC011082A4
:101690001182128213828AE090E0958384831682FD
:1016A00017820895CF93DF93EC01862F6F831E82FC
:1016B0000E945E0D892B11F083E08E830E947F0CC7
:1016C000688379838A839B83DF91CF910895FC019E
:1016D000758364830895FF920F931F93CF93DF93D5
:1016E000EC018F810E945E0DFF24F394892B09F495
:1016F000F12C8E81982F977F9E8386958170F816A6
:1017000051F00E947F0C688379838A839B838E814A
:1017100092E0892721C00E947F0C088119812A81CB
:101720003B81601B710B820B930B0C811D8120E0B0
:1017300030E0601771078207930778F08E8181701F
:101740008F1559F00E947F0C688379838A839B836D
:101750008E8191E0892788608E838E8183FB882724
:1017600080F9DF91CF911F910F91FF900895FC01B7
:101770008681817008951F920F920FB60F921124E7
:101780002F933F934F935F936F937F938F939F9389
:10179000AF93BF93EF93FF93E091BE03F091BF032C
:1017A000309709F451C0868DA685B785958581FF50
:1017B00004C08C91892329F447C08C91892309F0B6
:1017C00043C0A389B4899C918589809589238C9392
:1017D000868997890197F1F7208D318DA685B78588
:1017E000758558E040E0C9010197F1F7842F90E03A
:1017F00095958795482F6C91672309F04068515063
:1018000091F7868D81FD409580917D0390E0019652
:101810008F73992720917C03281749F0A0917D03AD
:10182000B0E0A258BC4F4C9380937D0303C0868DDB
:101830008160868F828D938D0197F1F7A389B4899A
:101840008C919589892B8C93FF91EF91BF91AF91EA
:101850009F918F917F916F915F914F913F912F91C8
:101860000F900FBE0F901F9018951F920F920FB6FA
:101870000F9211242F933F938F939F93AF93BF9316
:101880008091C1039091C203A091C303B091C4039E
:101890003091C00323E0230F2D3720F40196A11DC2
:1018A000B11D05C026E8230F0296A11DB11D20938E
:1018B000C0038093C1039093C203A093C303B0936A
:1018C000C4038091C5039091C603A091C703B09152
:1018D000C8030196A11DB11D8093C5039093C60353
:1018E000A093C703B093C803BF91AF919F918F910D
:1018F0003F912F910F900FBE0F901F9018952FB70B
:10190000F8946091C1037091C2038091C3039091D8
:10191000C4032FBF0895789484B5826084BD84B5D4
:10192000816084BD85B5826085BD85B5816085BDDA
:10193000EEE6F0E0808181608083E1E8F0E01082F3
:10194000808182608083808181608083E0E8F0E034
:10195000808181608083E1EBF0E08081846080831E
:10196000E0EBF0E0808181608083EAE7F0E0808155
:1019700084608083808182608083808181608083B5
:101980008081806880831092C1000895833081F047
:1019900028F4813099F08230A1F008958730A9F0C1
:1019A0008830B9F08430D1F4809180008F7D03C0FD
:1019B000809180008F7780938000089584B58F7721
:1019C00002C084B58F7D84BD08958091B0008F776B
:1019D00003C08091B0008F7D8093B0000895CF93B5
:1019E000DF9390E0FC01E458FF4F2491FC01E057A5
:1019F000FF4F8491882349F190E0880F991FFC01E3
:101A0000E854FF4FA591B49182559F4FFC01C591B9
:101A1000D4919FB7611108C0F8948C9120958223CE
:101A20008C93888182230AC0623051F4F8948C919F
:101A3000322F309583238C938881822B888304C036
:101A4000F8948C91822B8C939FBFDF91CF91089556
:101A50000F931F93CF93DF931F92CDB7DEB7282F3D
:101A600030E0F901E859FF4F8491F901E458FF4F44
:101A70001491F901E057FF4F04910023C9F0882326
:101A800021F069830E94C60C6981E02FF0E0EE0F1F
:101A9000FF1FE255FF4FA591B4919FB7F8948C9129
:101AA000611103C01095812301C0812B8C939FBFCE
:101AB0000F90DF91CF911F910F910895CF93DF93F6
:101AC000282F30E0F901E859FF4F8491F901E458DB
:101AD000FF4FD491F901E057FF4FC491CC2391F00F
:101AE00081110E94C60CEC2FF0E0EE0FFF1FEC55A9
:101AF000FF4FA591B4912C912D2381E090E021F42A
:101B000080E002C080E090E0DF91CF910895BF9225
:101B1000CF92DF92EF92FF920F931F93CF93DF93B9
:101B2000C82ED62EB42EC7E0D0E0022F10E087E0FA
:101B3000E82EF12CB1100AC0F701EC1BFD0BB80127
:101B400002C075956795EA95E2F707C0B8010C2EBB
:101B500002C0759567950A94E2F7617077278C2D1E
:101B60000E94280D61E08D2D0E94280D60E08D2DD2
:101B70000E94280D2197F0F6DF91CF911F910F91D0
:101B8000FF90EF90DF90CF90BF90089508950E944E
:101B90008B0C0E94C60D0E944407C0E0D0E00E945A
:101BA00096042097E1F30E940000F9CF991B79E099
:101BB00004C0991F961708F0961B881F7A95C9F7DD
:101BC0008095089597FB072E16F4009407D077FDB3
:101BD00009D00E94F60D07FC05D03EF49095819542
:101BE0009F4F0895709561957F4F0895AA1BBB1B69
:101BF00051E107C0AA1FBB1FA617B70710F0A61B0D
:101C0000B70B881F991F5A95A9F780959095BC012D
:101C1000CD010895EE0FFF1F0590F491E02D09947A
:101C2000FB01DC018D91019080190110D9F3990B12
:101C30000895AEE0B0E0EFE1FEE00C947A1185E0AB
:101C40008C838B899C899A838983AE01495E5F4F1F
:101C50006D897E89CE0101960E94B00F2E96E2E03A
:101C60000C94961120FD09C0FC0123FD05C022FF44
:101C700002C07383628351834083089544FD10C082
:101C800046FD10C0DB01FC01AA0FBB1FEE1FFF1FAA
:101C90001094D1F76A0F7B1F8E1F9F1F31E003C086
:101CA00033E001C034E0660F771F881F991F315061
:101CB000D1F7620F711D811D911D08950F931F9320
:101CC000CF93DF938C01C8010E941011EC0197FDA6
:101CD00008C00E94FD10892BB1F7B801CE010E9407
:101CE0004E11CE01DF91CF911F910F9108958F92E8
:101CF0009F92AF92CF92DF92EF92FF920F931F933A
:101D0000CF93DF93EC01A62E4A01022F0E941011FF
:101D1000AC0155274B32510521F04D32510551F49C
:101D20000068AA9411F480E067C0CE010E941011EF
:101D300097FDF9CF102F1D7F302F307301F58033C1
:101D4000F1F4FF24FA94FA0C09F442C0CE010E9487
:101D5000101197FD3DC0382F3F7D383551F4126486
:101D6000AA94AA94A9F1CE010E94101197FF07C06E
:101D70002FC006FF02C0126001C01261AF2CC12C3F
:101D8000D12C760120ED280F283080F014FF04C0FC
:101D9000BE010E944E1119C02A3040F016FFF8CF44
:101DA0002F7D3FEE320F363098F72750412FC70175
:101DB000B6010E943E0E6B017C011260AA9459F09C
:101DC000CE010E94101197FFDDCF11FD04C0ABCFF3
:101DD000C12CD12C760117FF08C0F094E094D09468
:101DE000C094C11CD11CE11CF11C212FB701A6011C
:101DF000C4010E94320E81E0DF91CF911F910F91BB
:101E0000FF90EF90DF90CF90AF909F908F900895CC
:101E1000A1E2B0E0EEE0FFE00C946F115C017A010A
:101E20008E010F5F1F4F680180E2D8011D928A95D5
:101E3000E9F7F501738040E050E0812CB0E0912C8F
:101E400081E090E0F90173FCA59173FEA1918F01EF
:101E50007A2F9F01A11103C080E090E07DC0AE35D4
:101E600019F44115510559F1E92DF0E0E417F50792
:101E70003CF4AD3569F1AD3219F4BB2319F103C05F
:101E8000B11101C08A2EE72FE695E695E695860109
:101E90000E0F111DF801A72FA7708C0102C0000FB3
:101EA000111FAA95E2F7D801B081BA2BB08378153B
:101EB00059F0781510F47F5FE6CF7150E4CF992484
:101EC000939403C0B1E001C0B0E04F5F5F4FBACF61
:101ED000BB2319F08E8180628E83911003C09924F8
:101EE000939415C0F601CE0181962081209521930F
:101EF000E817F907D1F7F3CFE114F10429F0D7017E
:101F00008C93F70131967F01615001F1912CC5014D
:101F100069A30E94101169A197FD16C0282F26956C
:101F200026952695F601E20FF11D208130E0AC01E7
:101F30004770552702C0359527954A95E2F720FD51
:101F4000DBCFB5010E944E11911086CFE114F10450
:101F500011F0D7011C92C801A196EDE00C948B11F1
:101F60004F925F927F928F929F92AF92BF92CF9249
:101F7000DF92EF92FF920F931F93CF93DF931F9205
:101F8000CDB7DEB78C012B017A01FC0117821682D6
:101F9000A12CF801D380F201D3FC8591D3FE81916D
:101FA000382F2F01882309F4FCC090E039830E9468
:101FB000FD103981892B21F0C8010E945E0EE9CF06
:101FC000353241F4F201D3FC3591D3FE31912F012A
:101FD000353269F4C80139830E941011398197FDA7
:101FE000DEC03817B1F2B8010E944E11DAC03A32A1
:101FF00041F4D3FC3591D3FE31912F01BB24B3942E
:1020000001C0B12C712C20ED230F2A3090F4FB2D50
:10201000F260BF2E672D70E080E090E040E20E9409
:102020003E0E762EF201D3FC3591D3FE31912F0175
:10203000EACFB1FE03C0711003C0B3C077247A9415
:10204000383619F03C3661F014C0F201D3FC3591FA
:10205000D3FE31912F01383661F4FB2DF860BF2E8D
:102060008B2D8460B82EF201D3FC3591D3FE3191D3
:102070002F01332309F495C0632F70E082EC90E0C8
:1020800039830E9405113981892B09F48AC0B0FC7B
:1020900007C0F701C080D180C70102967C0102C051
:1020A000C12CD12C3E3651F4F8014681578160E0B5
:1020B00070E02B2DC6010E94320E6BCF3336A1F497
:1020C000B1FC02C077247394C8010E94101197FDDF
:1020D00066C0C114D10429F0F6018083C6010196BF
:1020E0006C017A9489F757C03B3559F49201A601E7
:1020F000672DC8010E94080F2C01009709F04BC002
:1021000045C0C80139830E945E0E398197FD47C0E2
:102110003F3669F128F4343631F1393679F12BC084
:10212000333769F03537F9F026C0C114D10429F0EE
:10213000F6018082C60101966C017A9471F0C801A3
:102140000E9410114C0197FD08C00E94FD10892BC0
:1021500061F3B801C4010E944E11C114D104D9F039
:10216000F601108218C0FB2DF062BF2E07C08B2D28
:102170008061B82E03C09B2D9064B92E2B2DA60133
:10218000672DC8010E94770E811105C0F801838177
:10219000807329F406C0B0FCFCCEA394FACEAA202A
:1021A00019F08A2D90E002C08FEF9FEF0F90DF9122
:1021B000CF911F910F91FF90EF90DF90CF90BF9044
:1021C000AF909F908F907F905F904F900895F99976
:1021D000FECF92BD81BDF89A992780B50895262F2C
:1021E000F999FECF1FBA92BD81BD20BD0FB6F894FC
:1021F000FA9AF99A0FBE01960895911168C080323B
:1022000019F089508550D0F70895FC010590061605
:1022100021F00020D9F7C00108953197CF0108952A
:10222000CF93DF93EC012B8120FF33C026FF0AC040
:102230002F7B2B838E819F8101969F838E838A8142
:1022400090E029C022FF0FC0E881F98180819927A1
:1022500087FD9095009719F420622B831AC0319660
:10226000F983E8830EC0EA85FB85099597FF09C0CD
:102270002B81019611F480E101C080E2822B8B83D7
:1022800008C02E813F812F5F3F4F3F832E839927C8
:1022900002C08FEF9FEFDF91CF910895FB01238163
:1022A00020FF12C026FD10C08F3F3FEF930761F063
:1022B00082832F7D20642383268137812150310939
:1022C00037832683992708958FEF9FEF08959927E5
:1022D000882708952F923F924F925F926F927F923C
:1022E0008F929F92AF92BF92CF92DF92EF92FF9226
:1022F0000F931F93CF93DF93CDB7DEB7CA1BDB0BD2
:102300000FB6F894DEBF0FBECDBF09942A88398876
:1023100048885F846E847D848C849B84AA84B9847D
:10232000C884DF80EE80FD800C811B81AA81B98189
:10233000CE0FD11D0FB6F894DEBF0FBECDBFED019D
:062340000895F894FFCFA0
:1023460030750000012F01330137013B013F014386
:102356000147014B014F01530157015B0125643AC7
:1023660025643A2564002573202564202564004AE7
:10237600616E00466562004D617200417072004DEB
:102386006179004A756E004A756C004175670053A5
:102396006570004F6374004E6F7600446563004DB0
:1023A600617920313920323031360031363A3132D6
:1023B6003A32380042665A4242424242424242421F
:1023C6007E424242F999999F11111111F111F88F2C
:1023D600F111711F9999F111F888F11FF888F99F89
:1023E600F1111111F999F99FF99F111F69999996A0
:1023F600135111116911248F6911619688AAF2226D
:10240600F88861966988E996F11244446999699653
:1024160069997196000000000000006000006000ED
:102426000000606000600000006000600060600006
:10243600006060606000000060000060000102CC87
:102446007D8633A27999868566920133A17ACC7C02
:10245600FC002400007C0099A102668586339279EF
:10246600CCA285667E319949320000FC425418247C
:102476002A3C3C545A5A2AFF7E54FFBD0024A5002C
:10248600423C1824422A1824543CBD2A7EDB54DBE5
:102496007E2AFF3C002424005AE718A5000000000D
:0C24A600BC088F0864086C087F088E08D2
:00000001FF
